:100000000C949A010C94C2010C94C2010C94C2018C
:100010000C94C2010C94C2010C942C230C94C201C8
:100020000C94C2010C94C2010C94C2010C94C20144
:100030000C94C2010C94C2010C94C2010C94C20134
:100040000C946B210C94C2010C94DB210C94B5210F
:100050000C94C2010C94C2010C94C2010C94C20114
:100060000C940D220C94C20100407A10F35A00A0A7
:10007000724E18090010A5D4E80000E87648170071
:1000800000E40B54020000CA9A3B000000E1F505B1
:10009000000080969800000040420F000000A086FB
:1000A00001000000102700000000E803000000002D
:1000B0006400000000000A000000000001000000D1
:1000C00000002C76D888DC674F0823DFC1DFAE59EB
:1000D000E1B1B796E5E3E453C63AE651997696E87E
:1000E000E6C28426EB898C9B62ED407C6FFCEFBC02
:1000F0009C9F40F2BAA56FA5F490055A2AF75C932D
:100100006B6CF9676DC11BFCE0E40D47FEF520E662
:10011000B500D0ED902E0300943577050080841E45
:10012000080000204E0A000000C80C333333330FA0
:10013000986E12831141EF8D2114893BE65516CF3D
:10014000FEE6DB18D1844B381BF77C1D901DA4BB49
:10015000E424203284725E228100C9F124ECA1E5FE
:100160003D2709543A00094E414D453A000949449A
:100170003A004E554D3A004255533A00443A4445F0
:1001800042554700453A45444954204E414D4500AB
:100190004E3A444953504C4159204E414D4553002D
:1001A0004C3A4C4953542053442043415244005349
:1001B0003A5345415243482044455649434553002C
:1001C000543A54494D4520534554007C3C3E5E2BE7
:1001D0003D3F2F5B5D3B2C2A225C0000000000238A
:1001E0000026002900005EBCE2613FDD83C29C7EE8
:1001F00020A3FD1F41009D23BE46DB65F88C11AF97
:1002000032CA57E9745344204552524F5200534466
:1002100020494E4954005254432053455400444110
:1002200054414C4F47360020592F4E3F3A0053411E
:100230005645004E554D3A004255533A004E414DF9
:10024000453A00504F533F00494E4445583F0049FE
:100250004E444558094E414D450953495A450053AE
:1002600044204C495354005345415243482044458F
:100270005649434553004445425547204F464600A2
:100280004445425547204F4E000A5345433A000A21
:100290004D494E3A000A484F55523A000A444159D6
:1002A0003A000A4D4F4E54483A00594541523A00DF
:1002B00054494D45205345540053454E534F5253D6
:1002C000204552524F523A005344204552524F5209
:1002D000005344204552524F5200534420494E4946
:1002E000540000000000250028002B00000000083A
:1002F00000020100000304070000000000000000ED
:1003000000000000240027002A0001020408102039
:100310004080010204081020010204081020040497
:10032000040404040404020202020202030303039D
:1003300003036F2311241FBECFEFD8E0DEBFCDBF74
:1003400026E0AEE9B1E001C01D92A938B207E1F79D
:1003500011E0A0E0B1E0EAE1F7E602C005900D92FD
:10036000AE39B107D9F711E0CAE9D1E004C021974D
:10037000FE010E94BA2EC939D107C9F70E94DA23BB
:100380000C948B330C94000008950895982F2091BD
:10039000270581E0213208F043C0809126058111B4
:1003A000FCCF80911F0532E0309326059093250500
:1003B0009FEF9093FD041092FC042093FB04AFEF99
:1003C000B4E0EBEDF4E090E0291331C01092DA04D0
:1003D0009091DA04880F892B8093DA0480912405A8
:1003E000813049F5109224058091DA048093BB0096
:1003F0008091BC0083FDF8CF85EC8093BC00809198
:1004000026058230E1F38091FD048F3FB1F08091A9
:10041000FD048032A1F08091FD04803391F084E0EE
:1004200010922805109227051092FE0408953D9120
:1004300031939F5FC9CF85EEE0CF80E0F1CF82E0BE
:10044000EFCF83E0EDCF90E0FC01E451FD4F24912C
:10045000FC01E65FFC4F3491FC01E25EFC4FE4914D
:10046000EE23C9F0222339F0233001F1A8F4213022
:1004700019F1223029F1F0E0EE0FFF1FEE51FD4F90
:10048000A591B4918FB7F894EC91611126C0309585
:100490003E233C938FBF08952730A9F02830C9F040
:1004A000243049F7809180008F7D03C080918000C7
:1004B0008F7780938000DFCF84B58F7784BDDBCFCB
:1004C00084B58F7DFBCF8091B0008F778093B00093
:1004D000D2CF8091B0008F7DF9CF3E2BDACF109232
:1004E0002A051092290510922805109227051092CE
:1004F000260581E0809325051092240561E082E1C4
:100500000E94230261E083E10E942302E9EBF0E014
:1005100080818E7F808380818D7F808388E480933B
:10052000B80085E48093BC0084EC91E090932305AF
:100530008093220585EC91E090932105809320051E
:100540000895CF93DF9390E0FC01E65FFC4F249188
:10055000825E9C4FFC0184918823D1F090E0880F4B
:10056000991FFC01E050FD4FA591B491FC01EE51A3
:10057000FD4FC591D49161110EC09FB7F8948C9135
:10058000E22FE0958E238C932881E223E8839FBF9E
:10059000DF91CF9108958FB7F894EC91E22BEC9313
:1005A0008FBFF6CF3FB7F894809103029091040279
:1005B000A0910502B091060226B5A89B05C02F3F69
:1005C00019F00196A11DB11D3FBFBA2FA92F982F79
:1005D0008827BC01CD01620F711D811D911D42E074
:1005E000660F771F881F991F4A95D1F708958F923C
:1005F0009F92AF92BF92CF92DF92EF92FF926B01E8
:100600007C010E94D2024B015C01C114D104E104BF
:10061000F104B9F00E94D202681979098A099B098C
:10062000683E73408105910580F321E0C21AD1082C
:10063000E108F10888EE880E83E0981EA11CB11C29
:10064000E4CFFF90EF90DF90CF90BF90AF909F905E
:100650008F9008952FB7F8946091FF017091000278
:1006600080910102909102022FBF0895AF92BF9234
:10067000CF92DF92EF92FF920F931F93CF93DF936E
:100680006C017B018B01040F151FEB015E01AE189D
:10069000BF08C017D10759F06991D601ED91FC91BF
:1006A0000190F081E02DC6010995892B79F7C501EC
:1006B000DF91CF911F910F91FF90EF90DF90CF903E
:1006C000BF90AF900895FC01538D448D252F30E0ED
:1006D000842F90E0821B930B541710F0CF9608954F
:1006E00001970895FC01918D828D981761F0A28D7C
:1006F000AE0FBF2FB11D5D968C91928D9F5F9F7342
:10070000928F90E008958FEF9FEF08950F931F93BE
:100710000E942A0360933305709334058093350556
:10072000909336058BE295E00E94720397FF1DC0FF
:100730000E942A030091330510913405209135055C
:1007400030913605601B710B820B930B00912F05C6
:1007500010913005209131053091320560177107F5
:1007600082079307F8F28FEF9FEF1F910F91089583
:10077000FC01918D828D981731F0828DE80FF11D6B
:10078000858D90E008958FEF9FEF0895FC01918D86
:10079000228D892F90E0805C9F4F821B91098F737F
:1007A000992708958BE295E00E94C60321E0892BEA
:1007B00009F420E0822F089580E090E0892B29F051
:1007C0000E94D20381110C9400000895FC01A48DB5
:1007D000A80FB92FB11DA35ABF4F2C91848D90E063
:1007E00001968F739927848FA689B7892C93A08946
:1007F000B1898C91837080648C93938D848D9813D0
:1008000006C00288F389E02D80818F7D8083089562
:10081000EF92FF920F931F93CF93DF93EC0181E050
:10082000888F9B8D8C8D98131AC0E889F9898081F7
:1008300085FF15C09FB7F894EE89FF896083E8892A
:10084000F98980818370806480839FBF81E090E01C
:10085000DF91CF911F910F91FF90EF900895F62EA9
:100860000B8D10E00F5F1F4F0F731127E02E8C8D43
:100870008E110CC00FB607FCFACFE889F989808188
:1008800085FFF5CFCE010E94E603F1CFEB8DEC0F93
:10089000FD2FF11DE35AFF4FF0829FB7F8940B8FA5
:1008A000EA89FB8980818062CFCF682F8BE295E057
:1008B0000C9408040F931F93CF93DF938C01D0E027
:1008C000C0E0F801EC0FFD1F6491662341F08BE25C
:1008D00095E00E940804892B11F02196F2CFCE01F9
:1008E000DF91CF911F910F910895CF93DF93EC018A
:1008F000888D8823B9F0AA89BB89E889F9898C9108
:1009000085FD03C0808186FD0DC00FB607FCF7CFC3
:100910008C9185FFF2CF808185FFEDCFCE010E94C3
:10092000E603E9CFDF91CF910895DC0180E06150CB
:1009300090F09D919827E92FEF70F0E0EB51FE4F7A
:100940002491E92FE295EF70F0E0EB50FE4FE49137
:10095000822F8E27ECCF0895DC012C911196ED911A
:10096000FC91F8948181822B81839281322F309582
:100970009323928387E090E00197F1F781818323AD
:10098000818383E290E00197F1F790817894EFEC16
:10099000F0E03197F1F7922381E009F480E00895C7
:1009A000FC0190810180F281E02D292F209560FFCC
:1009B00014C0F8948281822382838181892B818370
:1009C000A3E2B0E01197F1F78281982B928378949B
:1009D00087ED90E00197F1F70895F89482818223E2
:1009E00082838181892B8183AFEFB0E01197F1F78A
:1009F0008281982B928378948FE090E0EBCFDF9206
:100A0000EF92FF920F931F93CF93DF93EC01D62EBB
:100A1000E42E08E010E0FF24F39461E08D2D8F2197
:100A200009F460E0CE010E94D004FF0C01501109CE
:100A3000A1F7E11010C0F894E981FA8191818881D1
:100A4000809589238183E981FA81928188818095CB
:100A5000892382837894DF91CF911F910F91FF902A
:100A6000EF90DF900895EF92FF920F931F93CF9333
:100A7000DF938C017B0140E065E50E94FF04E70104
:100A800088E0E80EF11C699140E0C8010E94FF0473
:100A9000CE15DF05C1F7DF91CF911F910F91FF9028
:100AA000EF900895FC0190810180F281E02DF8948F
:100AB0008181292F20958223818378943DE743E02B
:100AC00050E0315029F1DA011197F1F78081892343
:100AD000C1F3F8948281822382838181892B81836F
:100AE0007894ABE7B7E01197F1F7F894818182230E
:100AF0008183A3E1B1E01197F1F78081982381E030
:100B000009F080E07894E3E6F6E03197F1F7089594
:100B100080E008958F929F92AF92BF92CF92DF9222
:100B2000EF92FF92CF93DF93EC018E819F810E9421
:100B3000520540E06CEC8E819F810E94FF04488149
:100B400064E48E819F810E94FF048A81882371F171
:100B5000E981E9508EEEC82E82E0D82EE33038F4D9
:100B6000F0E0EE0FFF1FE45FFE4FC080D1808B816D
:100B7000882339F18881811124C00E942A034B0106
:100B80005C010D2C000CEE08FF088E819F810E94F5
:100B9000AC04813059F00E942A036C197D098E093A
:100BA0009F09681579058A059B0578F3DF91CF9138
:100BB000FF90EF90DF90CF90BF90AF909F908F907D
:100BC0000895B601DD0C880B990BDF91CF91FF9052
:100BD000EF90DF90CF90BF90AF909F908F900C944C
:100BE000F7026F927F928F929F92AF92BF92CF92B5
:100BF000DF92EF92FF920F931F93CF93DF93EC015D
:100C00007B018A018E819F810E945205811102C061
:100C100090E037C0B7018E819F810E94330540E08C
:100C20006EEB8E819F810E94FF047801680189E04C
:100C3000C80ED11CAE80BF8088E0882E912C712C0C
:100C400066246394C5010E94AC0481117628660C69
:100C5000E1E08E1A9108B1F7F70171927F01EC156E
:100C6000FD0541F78E819F810E945205813081F6FA
:100C700068E0C8010E94950491E0F80120852813DE
:100C8000C7CF892FDF91CF911F910F91FF90EF90E8
:100C9000DF90CF90BF90AF909F908F907F906F909C
:100CA00008950F931F93CF93DF93CDB7DEB72997A6
:100CB0000FB6F894DEBF0FBECDBF8B01AE014F5F04
:100CC0005F4F0E94F105811105C060E070E08EEF7A
:100CD00092EC3CC06A8170E0762F6627770F770F21
:100CE000770F298148E0249F90011124262B372B70
:100CF000F80180818031D1F4688570E08F81AB018B
:100D0000481B5109CA019695982F88279795879572
:100D10000E94702ECB014097B90153E0660F771FF8
:100D20005A95E1F760789C01260F371F213854EE61
:100D300035075CF2B901330F880B990B0E943A2CEE
:100D400020E030E040E05CE30E94992C29960FB649
:100D5000F894DEBF0FBECDBFDF91CF911F910F91F1
:100D60000895CF93DF93CDB7DEB729970FB6F894E8
:100D7000DEBF0FBECDBFFB012081203199F0AE0157
:100D80004F5F5F4F0E94F105882331F08D818F33D3
:100D9000A9F020F48F31A1F080E007C08F3521F059
:100DA0008F37D1F78CE001C08BE029960FB6F8940D
:100DB000DEBF0FBECDBFDF91CF9108958AE0F5CFA2
:100DC00089E0F3CFFC01DB0112968D919C91139782
:100DD000938382838AE391E09183808314968C913C
:100DE0001497848315968C911597858316964D914B
:100DF0005D916D917C9119974683578360877187C8
:100E00001A964D915D916D917C911D974287538704
:100E1000648775871E964D915D916D917C91519778
:100E200046875787608B718B52968C915297828B35
:100E300053964D915D916D917C915697438B548B58
:100E4000658B768B57964D915D916D917C915A97FC
:100E5000478B508F618F728F5B968D919C91948F91
:100E6000838F0895DC015996ED91FC91309721F024
:100E700081E09581911101C080E00895DC015996CF
:100E8000ED91FC913097B9F083899489A589B68951
:100E90004285538564857585841B950BA60BB70B1E
:100EA000811520E89207A105B10538F08FEF9FE783
:100EB000A0E0B0E0089590E080E00895DC0159964C
:100EC0008D919C91009739F0DC01ED91FC910480AB
:100ED000F581E02D099490E080E00895CF93DF93B1
:100EE0001F92CDB7DEB76983DC01ED91FC910280E2
:100EF000F381E02D41E050E0BE016F5F7F4F099527
:100F00000F90DF91CF91089508958FB7F894809155
:100F1000E2018FBF089561E0FC0184810E942302F9
:100F20008091E10181111092E10108958EBD0000D0
:100F30000DB407FEFDCF8EB508958FEF0C94960784
:100F40000F931F93CF93DF93EC010E942A038B0131
:100F50000E949D078F3F69F00E942A03601B710B5E
:100F60006C177D07A8F380E0DF91CF911F910F915F
:100F7000089581E0F9CF8CBD9DBD0895CF93DF9397
:100F8000EC018091E101811109C081E08093E101D0
:100F900080911106909112060E94BB0760E08C813F
:100FA000DF91CF910C9423028F929F92AF92BF92C8
:100FB000FF920F931F93CF93DF93EC01F62E49011D
:100FC0005A018E81882389F08F8198859C012F5F3B
:100FD0003F4F38872F838230924018F40E949D073C
:100FE000F3CFCE010E948B071E82CE010E94BE0766
:100FF0008CE291E00E94A0078F2D80640E949607EA
:1010000008E110E0D501C401002E04C0B695A795F3
:10101000979587950A94D2F70E9496070850110970
:10102000083F8FEF180771F785E9FF2021F028E0CE
:1010300087E8F2128FEF0E94960710E00E949D074A
:101040008A8787FF04C01F3F11F01F5FF7CFDF9132
:10105000CF911F910F91FF90BF90AF909F908F9075
:101060000895AF92BF92CF92DF92EF92FF920F93CB
:101070001F93CF93DF93EC016901C801820F931F87
:101080008130924050F58E81882379F08881998152
:10109000AA81BB8184179507A607B70731F48F8112
:1010A0009885C816D90608F042C0488359836A83D8
:1010B0007B838B85833039F089E0440F551F661F91
:1010C000771F8A95D1F79A01AB0161E1CE010E94A9
:1010D000D407882389F083E08D83CE010E948B079B
:1010E00080E0DF91CF911F910F91FF90EF90DF9003
:1010F000CF90BF90AF9008950E942A035B010E9499
:101100009D078A878F3F69F40E942A036A197B0929
:101110006D327140A0F38FE08D83CE010E948B076A
:10112000DCCF8E3F89F418861F8281E08E838F8109
:1011300098858C159D0550F40E949D078F81988598
:10114000019698878F83F3CF8DE0E6CF6701E00E9D
:10115000F11E0E949D07F60181936F01EE15FF05B8
:10116000C1F78F819885080F191F18870F8389850C
:10117000882319F001151240A0F08E81882389F090
:101180008F8198859C012F5F3F4F38872F83823056
:10119000924018F40E949D07F3CFCE010E948B0766
:1011A0001E8281E09ECFCF92DF92EF92FF920F934B
:1011B000CF93DF93EC01690182E14115510561058F
:1011C000710599F08B85833039F089E0440F551F04
:1011D000661F771F8A95D1F79A01AB0168E1CE01AE
:1011E0000E94D407882319F084E08D832DC08EEFF0
:1011F0000E94960776018EEFD81AF70181917F0140
:101200000E949607EC14FD04C1F78FEF0E94960729
:101210008FEF0E9496070E949D078A878F71853005
:1012200071F4011116C0CE010E948B0781E0DF919D
:10123000CF910F91FF90EF90DF90CF90089581E1D3
:101240008D83CE010E948B07CE010E948B0780E028
:10125000EECF88E592E00E94A007811102C085E1EF
:10126000C4CF20E030E0A9016DE0CE010E94D40798
:10127000882311F084E1B9CF0E949D078111FACF34
:10128000D2CF0F934091E4015091E5016091E601C6
:101290007091E701411551056105710599F0082F1D
:1012A00028E032E080910804909109040E94D3085C
:1012B000882349F01092E4011092E5011092E601B2
:1012C0001092E70181E00F9108950F93CF93C82FFB
:1012D0008091E301811105C0C1E08C2FCF910F9166
:1012E00008954091000150910101609102017091B7
:1012F00003010C2F28E032E080910804909109044A
:101300000E94D308811102C0C0E0E7CFCC2321F3B3
:1013100081E00E9441098823B9F31092E301DDCFF7
:101320008F929F92AF92BF92EF92FF920F931F9373
:10133000CF934B015C01C42F80910001909101017A
:10134000A0910201B091030188159905AA05BB057A
:1013500051F181E00E94650981110BC080E0CF91BD
:101360001F910F91FF90EF90BF90AF909F908F9043
:10137000089588E0E82E82E0F82E00E012E030E0E8
:1013800020E0B501A40180910804909109040E9415
:101390003108882319F38092000190920101A092F4
:1013A0000201B09203014091E3014C2B4093E30111
:1013B00081E0D5CF8F929F92AF92BF92CF92DF9272
:1013C000EF92FF92CF9328EC35E0309309042093FD
:1013D0000804882309F46DC040E060E070E0CB01B0
:1013E0000E94900981110BC080E0CF91FF90EF9097
:1013F000DF90CF90BF90AF909F908F900895809195
:10140000C6038F7789F78091D2039091D303A0917F
:10141000D403B091D50384369105A105B10520F31D
:10142000C090CE03D090CF03E090D003F090D103D2
:10143000C114D104E104F104B9F240E0C701B601DE
:101440000E949009882381F28091130290911402E6
:101450008115924049F6A0911802AA2329F26091C1
:101460001602709117026115710509F4BDCF209124
:101470001502222309F4B8CFA093E6052093D805DE
:1014800090E080E030E0E1E0F0E0C82FAF01082E0E
:1014900002C0440F551F0A94E2F72417350769F07C
:1014A00041E0480F01968930910579F74093E105B5
:1014B0009BCFC12CD12C7601C0CF8093E105209128
:1014C0001E0230911F0250E040E02115310541F429
:1014D00020912C0230912D0240912E0250912F022A
:1014E0002093D9053093DA054093DB055093DC0552
:1014F00046015701860E971EA11CB11C8092E7057C
:101500009092E805A092E905B092EA05E0911902EF
:10151000F0911A02F093ED05E093EC05B0E00E9423
:101520006D2DDC01CB01880D991DAA1DBB1D80937B
:10153000EE059093EF05A093F005B093F10525E03B
:10154000EE0FFF1F2A95E1F7E150FE4FEF2FFF2727
:10155000E6958E0F9F1FA11DB11D8093E20590930C
:10156000E305A093E405B093E50580901B029090FD
:101570001C02B12CA12C8114910441F4809028020A
:1015800090902902A0902A02B0902B02C81AD90A82
:10159000EA0AFB0AC80CD91CEA1CFB1C04C0F6941E
:1015A000E794D794C794CA95D2F7C092DD05D0923C
:1015B000DE05E092DF05F092E00585EFC8168FE0CA
:1015C000D806E104F10428F48CE08093EB0581E077
:1015D0000CCF80E125EFC2162FEFD206E104F10413
:1015E000A0F38091340290913502A0913602B0911F
:1015F00037028093EE059093EF05A093F005B0932A
:10160000F10580E2E2CF4F925F926F927F928F92CC
:101610009F92AF92BF92CF92DF92EF92FF920F9381
:101620001F93CF93DF93EC014230510561057105A3
:1016300090F480E0DF91CF911F910F91FF90EF9098
:10164000DF90CF90BF90AF909F908F907F906F90E2
:101650005F904F90089589859A85AB85BC850196EA
:10166000A11DB11D84179507A607B70710F3CB88F6
:10167000DC88ED88FE888F89803109F042C0BB2765
:10168000A72F962F852F480159012A013B01C80E2B
:10169000D91EEA1EFB1E8091000190910101A091CC
:1016A0000201B0910301C816D906EA06FB0699F5B6
:1016B0008F898031C1F5B301A201552766277727AD
:1016C000440F551F485F5D4FFA01918280828091DF
:1016D000E30181608093E3018A89823080F08D810B
:1016E0009E81AF81B8858C0D9D1DAE1DBF1D809361
:1016F000E4019093E501A093E601B093E70181E056
:1017000099CFDB01CA01E7E0B695A7959795879534
:10171000EA95D1F7B8CF40E0C701B6010E94900921
:101720008111C6CF86CFB301A2014F775527662717
:101730007727440F551F440F551F485F5D4FFA012F
:1017400080829182A282B382C2CF8F929F92AF9207
:10175000BF92CF92DF92EF92FF920F931F93CF939E
:10176000DF93FC0181859285A385B4850196A11D37
:10177000B11D84179507A607B70770F480E0DF91C5
:10178000CF911F910F91FF90EF90DF90CF90BF907E
:10179000AF909F908F90089583889488A588B6888D
:1017A0008789803189F5BB27A72F962F852FE901DF
:1017B0006A017B018F01BC01CD01680D791D8A1D75
:1017C0009B1D8090000190900101A0900201B090BB
:1017D000030186169706A806B90601F5F801878960
:1017E000803111F5DD24EE24FF24F601EE0FFF1FFA
:1017F000E85FFD4F80819181B0E0A0E0888399830C
:10180000AA83BB8381E0BBCFDB01CA01C7E0B695E9
:10181000A79597958795CA95D1F7C9CF40E00E94C3
:1018200090098111DBCFAACFE894C7F8DD24EE241C
:10183000FF24F601EE0FFF1FEE0FFF1FE85FFD4FC5
:1018400080819181A281B381BF70D8CF4F925F9286
:101850006F927F92AF92BF92CF92DF92EF92FF9200
:101860000F931F93CF93DF9300D000D0CDB7DEB797
:101870008C0149835A836B837C835901C12CD12C01
:101880007601412C82E0582E612C712C49815A81BD
:101890006B817C819E012F5F3F4FC8010E94A50B89
:1018A000882339F1F8018585A301920104C0220F34
:1018B000331F441F551F8A95D2F7DA01C901C80E9C
:1018C000D91EEA1EFB1E49815A816B817C81878962
:1018D000803111F188EF9FEFAFEFBFE04817590754
:1018E0006A077B0798F2F501C082D182E282F38217
:1018F00081E00F900F900F900F90DF91CF911F918B
:101900000F91FF90EF90DF90CF90BF90AF907F90BE
:101910006F905F904F90089588EF9FEFA0E0B0E048
:10192000DDCFCF93DF93FC012581222321F080E0DE
:10193000DF91CF910895EC018091EB05803159F54D
:1019400082E08583178A108E118E128E8091EC05AD
:101950009091ED05B0E0A0E025E0880F991FAA1F47
:10196000BB1F2A95D1F7838B948BA58BB68B84ED07
:1019700095E09C8F8B8F81E08C831E821F8218865E
:1019800019861A861B861C861D861E861F86188A47
:10199000198A1A8ACDCF803251F683E0858340912F
:1019A000EE055091EF056091F0057091F105478BC0
:1019B000508F618F728F9F012D5E3F4F84ED95E0B8
:1019C0000E94260C8111D3CFB2CF8F929F92AF92FB
:1019D000BF92CF92DF92EF92FF920F931F93CF931C
:1019E000DF93EC018D8181110EC080E0DF91CF91FA
:1019F0001F910F91FF90EF90DF90CF90BF90AF902D
:101A00009F908F9008950B891C892D893E8904171A
:101A100015072607370748F34A015B01823031F486
:101A20008A869B86AC86BD8681E0E0CF81149104D6
:101A3000A104B10449F41E821F82188619861A86F1
:101A40001B861C861D86F0CF0A851B852C853D854F
:101A5000EB8DFC8D858590E00996B901A801415078
:101A6000510961097109082E04C07695679557954B
:101A700047950A94D2F775016401E1E0CE1AD108C6
:101A8000E108F10804C0F694E794D794C7948A95C6
:101A9000D2F7C416D506E606F70620F0012B022B76
:101AA000032B11F58F89988DA98DBA8D8E839F8315
:101AB000A887B9878E010A5F1F4FC114D104E104C2
:101AC000F10409F4ADCF4E815F8168857985980175
:101AD0008B8D9C8D0E94A50B91E0C91AD108E1085D
:101AE000F1088111EACF81CFC41AD50AE60AF70AB4
:101AF000E1CF3F924F925F926F927F928F929F922F
:101B0000AF92BF92CF92DF92EF92FF920F931F930B
:101B1000CF93DF93CDB7DEB72C970FB6F894DEBF27
:101B20000FBECDBF5C01DC015B968D909C905C97F5
:101B300016964D905D906D907C90199741145104CC
:101B40006104710409F468C0BFEF4B1A5B0A6B0AA9
:101B50007B0A312CF40181859285A385B4859C0193
:101B6000AD012F5F3F4F4F4F5F4F29873A874B871C
:101B70005C87730162011D821E821F821886F40138
:101B800081859285A385B4852D813E814F815885BD
:101B9000281739074A075B0708F056C089859A85D8
:101BA000AB85BC858C159D05AE05BF0550F482E064
:101BB000C82ED12CE12CF12C92E0492E512C612C15
:101BC000712C9E012F5F3F4FB701A601C4010E94F7
:101BD000A50B8823C9F189819A81AB81BC81892BAE
:101BE0008A2B8B2B09F1260137019FEF491A590ADD
:101BF000690A790A2D813E814F8158852F5F3F4FB9
:101C00004F4F5F4F2D833E834F8358873FEFC31A5B
:101C1000D30AE30AF30AB3CFF40140805180628013
:101C200073803324339496CFC414D504E604F704A8
:101C300009F70FEF1FEF2FEF3FE0B701A601C40137
:101C40000E94030B811119C080E02C960FB6F89406
:101C5000DEBF0FBECDBFDF91CF911F910F91FF90DF
:101C6000EF90DF90CF90BF90AF909F908F907F903C
:101C70006F905F904F903F900895D50116964D91CB
:101C80005D916D917C911997411551056105710523
:101C900039F097018601C4010E94030B8823A1F249
:101CA000D5011696CD92DD92ED92FC9219973320D4
:101CB00051F0D701C6010196A11DB11DF401808329
:101CC0009183A283B383F5018789908DA18DB28D15
:101CD000892B8A2B8B2B39F48481C78AD08EE18E95
:101CE000F28E80688483F50184818062848381E040
:101CF000ACCF2F923F924F925F926F927F928F92D2
:101D00009F92AF92BF92CF92DF92EF92FF920F938A
:101D10001F93CF93DF93EC015B012A018D81811129
:101D200015C08FEF9FEFDF91CF911F910F91FF9023
:101D3000EF90DF90CF90BF90AF909F908F907F906B
:101D40006F905F904F903F902F9008958C8180FF0F
:101D5000E8CF0B891C892D893E894A855B856C8576
:101D60007D85C201B0E0A0E068017901C41AD50AFE
:101D7000E60AF70AC816D906EA06FB0618F428018F
:101D8000441A550A42011E0126E0220E311C81141C
:101D9000910409F4B3C04A855B856C857D856A0131
:101DA00081E0D8228B8D9C8D8A019B01E9E03695DC
:101DB000279517950795EA95D1F7ED81E230E1F582
:101DC000FC01628D738D848D958D600F711F821F54
:101DD000931F612C22E0722E6C187D0886149704E4
:101DE00008F434012C8126FD04C06114F2E07F0662
:101DF00071F40091000110910101209102013091D4
:101E00000301061717072807390709F053C040E0F8
:101E10000E949009882309F484CFC601885F9D4FF2
:101E2000D5019C01260D371DFC012E173F0709F433
:101E300060C041914D93F9CFFC0174807A94702277
:101E4000C114D10471F471100CC0452B462B472BE3
:101E500039F58F89988DA98DBA8D8E839F83A88738
:101E6000B987EB8DFC8D6E817F8188859985625065
:101E7000710981099109258504C0660F771F881FA4
:101E8000991F2A95D2F70685178520893189600F19
:101E9000711F821F931F670D711D811D911D99CFA9
:101EA0004E815F816885798591010E94A50B811122
:101EB000D8CF37CF750183019601AB01BC0180916A
:101EC0000804909109040E943108882309F429CF5D
:101ED000A60CB71C8A859B85AC85BD85860D971D94
:101EE000A11DB11D8A879B87AC87BD87861897087F
:101EF0004ECF281B390BA20EB31EECCFC20113CF5D
:101F0000CF93DF931F92CDB7DEB741E050E0BE0123
:101F10006F5F7F4F0E94790E019731F4898190E0C5
:101F20000F90DF91CF9108958FEF9FEFF9CFFC01D4
:101F3000818D928D009711F00C94800F8FEF9FEFA1
:101F400008950F931F93CF93DF93EC01898D9A8DA2
:101F500010E000E0009799F00E94800F8C010F3F85
:101F6000100769F0898D9A8DFC014285538564853F
:101F7000758541505109610971090E94E50CC8013C
:101F8000DF91CF911F910F9108951F93CF93DF930E
:101F9000FC0125812223D1F1162FEC01848187FFDA
:101FA0002AC0668577858089918941E00E949009E1
:101FB000882361F1EA8980E2E89FF0011124E85F5B
:101FC000FD4F309719F18D81823040F48B899C89C7
:101FD000AD89BE89848F958FA68FB78F8F89988D95
:101FE000938F828F8F89988DA98DBA8DB58BA48B95
:101FF0008C818F778C83111103C08C818F7E8C83B1
:10200000812FDF91CF911F910C94650980E0DF91C2
:10201000CF911F910895FC01818D928D009719F049
:1020200061E00C94C50F0895FF920F931F93CF9317
:10203000DF93EC018D81813041F090E080E0DF9111
:10204000CF911F910F91FF9008958C8181FFF5CF63
:1020500082FD1BC00091080410910904C8010E9470
:10206000BE070E949D07F82EC8010E948B078FEFC4
:10207000F812E3CF8C8185FF1BC060E0CE010E9487
:10208000C50F8C818F7D8C83D8CF4B895C896D89FE
:102090007E898A859B85AC85BD8584179507A607B3
:1020A000B707C1F2CE010E94E50C8111D3CFC5CF95
:1020B0004091E4015091E5016091E6017091E701E2
:1020C000452B462B472B21F080E00E944109B5CFDC
:1020D00080618C832A853B85317080E092E0821B91
:1020E000930BADCFCF93DF93EC0161E00E94C50F5E
:1020F000882311F01D8281E0DF91CF910895CF9266
:10210000DF92EF92FF921F93CF93DF938091F705B9
:10211000882321F082EF95E00E9472101092D3057F
:102120001092D1051092CE051092CD058AE08093D1
:10213000CC050E942A03EB0161E08091CC050E944E
:10214000A10261E08091CC050E9423021FB7F894A0
:1021500080910702811127C0E8E2F3E08491E4E175
:10216000F3E09491E82FF0E0EE0FFF1FE050FD4FF9
:10217000A591B491EC91E92321F461E08AE00E94F9
:10218000230261E08AE00E94A1028CB580618CBDCF
:102190008CB580648CBD61E08DE00E94A10261E09D
:1021A0008BE00E94A102809107028F5F809307025B
:1021B0001FBF82E5809311061092120680911106CE
:1021C000909112060E94BB071AE08FEF0E949607BB
:1021D0001150D9F788EC95E00E94BE0720E030E06E
:1021E000A90160E088EC95E00E94D407182F809345
:1021F000D205813081F00E942A036C1B7D0B613D6A
:10220000774060F381E08093CD0588EC95E00E94F3
:102210008B0790E078C02AEA31E040E050E068E0C7
:1022200088EC95E00E94D40782FF2AC01093D30562
:102230008091D305C12CD12C7601823029F4C12C98
:10224000D12CE12C80E4F82E20E030E0A90167E3F6
:1022500088EC95E00E94D407A701960169E288EC1A
:1022600095E00E94D4078093D2058823C1F00E9494
:102270002A036C1B7D0B613D774030F388E0C3CFB0
:1022800014E00E949D078093D2051150D1F78A3A3D
:1022900011F082E0B8CF82E08093D305C9CF80915E
:1022A000D3058230D1F420E030E0A9016AE388EC64
:1022B00095E00E94D407882311F086E0A4CF0E9405
:1022C0009D07807C803C19F483E08093D3050E94B5
:1022D0009D070E949D070E949D0788EC95E00E9443
:1022E0008B0780E5809311061092120681E00E9410
:1022F000DA09882389F082EF95E00E94910C91E041
:10230000882309F486CF892FDF91CF911F91FF9009
:10231000EF90DF90CF90089580E00E94DA09882343
:1023200009F477CFE8CF2F923F924F925F926F924E
:102330007F928F929F92AF92BF92CF92DF92EF9255
:10234000FF920F931F93CF93DF9300D000D01F9283
:10235000CDB7DEB77C015B01342E5D83DC011596C1
:102360008C911597813009F0CEC014962C9021FEE7
:10237000CAC022FCB4C0C32CDD8022947FE0272297
:102380002094B22DB1702B2ED7011A964D915D91EC
:102390006D917C911D97C114D10409F428C15B96FD
:1023A0008D919C915C97FC0174807A948A019B01C9
:1023B00069E036952795179507956A95D1F77022AC
:1023C0008A011170711020C001151105E9F41696EB
:1023D0004D915D916D917C91199741155105610564
:1023E000710509F099C057968D919D910D90BC9102
:1023F000A02D0097A105B10509F0B0C0C7010E944A
:10240000790D882309F47FC080E092E0801B910B56
:1024100046018C159D0508F44C01D7015B964D9142
:102420005C915C9716968D919D910D90BC91A02D1D
:102430000297A109B109FA01258504C0880F991FE7
:10244000AA1FBB1F2A95D2F74685578560897189D7
:10245000840F951FA61FB71F9C01AD01270D311DCD
:10246000411D511D29013A01811432E0930609F002
:102470007BC08091000190910101A0910201B09177
:10248000030184159505A605B70559F48FEF9FEF55
:10249000DC018093000190930101A0930201B093AD
:1024A0000301022D9501B301A201809108049091CE
:1024B00009040E94D308882331F19EEFB91AC81885
:1024C000D908F70182859385A485B585880D991D66
:1024D000A11DB11D82879387A487B58755CFF701CA
:1024E000438954896589768982859385A485B585D4
:1024F000481759076A077B0709F43DCFC7010E94B7
:10250000E50C811138CF81E090E0D70113969C93C0
:102510008E93129780E007C09E012F5F3F4F0E946D
:10252000A50B811102C090E079C089819A81AB81AD
:10253000BC81F701238D348DF901278948EF5FEFC6
:1025400060E070E0203121F048EF5FEF6FEF7FE057
:1025500084179507A607B70708F050CFF7018683C1
:102560009783A087B18750CF0115110599F5D70141
:102570001A964D915D916D917C911D9753968D9119
:102580009D910D90BC91A02D481759076A077B07B4
:1025900008F181E00E946509882309F4B4CF4092D4
:1025A000000150920101609202017092030180913A
:1025B000E30181608093E301C801885F9D4FD501ED
:1025C0009C01280D391DFC012E173F0759F04D9134
:1025D0004193FACF41E0C301B2010E9490098111F9
:1025E000EBCF91CF281B390BA20EB31E68CFF7019A
:1025F00083899489A589B68984179507A607B707A3
:1026000038F48481438B548B658B768B806884830C
:10261000F701848183FD1AC0832D9D810F900F9057
:102620000F900F900F90DF91CF911F910F91FF901E
:10263000EF90DF90CF90BF90AF909F908F907F9062
:102640006F905F904F903F902F90089561E0C70189
:102650000E94C50F882309F456CFDECFCF93DF93B6
:10266000EC01E98DFA8D309749F481E090E09B838D
:102670008A8390E080E0DF91CF91089513821282E7
:10268000898D9A8D0E949311E98DFA8D2281338173
:10269000232B59F7F0CFCF93DF931F92CDB7DEB73F
:1026A000698341E050E0BE016F5F7F4F0E9493114C
:1026B0000F90DF91CF9108950895E0912A058091C0
:1026C0002905E81730F4F0E0E654FB4F808190E0F4
:1026D00008958FEF9FEF089590912A058091290525
:1026E0002FEF3FEF981748F4E92FF0E0E654FB4F47
:1026F000208130E09F5F90932A05C9010895809161
:10270000290590912A05891B990B089590E080E096
:10271000089585ED8093BC008091BC0084FDFCCFC2
:102720001092260508952091BE01260F3327331FEE
:1027300021323105ECF420912605FC0190E080E087
:10274000243069F082E00895A091BE012191AC018E
:1027500042565E4FA40FB52FB11D2C9301968617DC
:1027600098F38091BE01680F6093BE0180E00895E8
:1027700081E00895CF92DF92EF92FF920F931F9323
:10278000CF93DF937C01CB018A012091FE042223A9
:1027900089F0EB016B01C40ED51ECC15DD0569F087
:1027A0006991D701ED91FC910190F081E02DC70175
:1027B0000995F3CF642F0E949313C801DF91CF9145
:1027C0001F910F91FF90EF90DF90CF900895CF93DE
:1027D000DF931F92CDB7DEB769832091FE042223D9
:1027E000F9F020912705203258F021E030E0FC017B
:1027F0003383228390E080E00F90DF91CF910895A2
:1028000080912805E82FF0E0E150FB4F99819083FB
:102810008F5F809328058093270581E090E0ECCFBF
:1028200061E0CE0101960E949313F7CF1F93CF93DF
:10283000DF93EC0181E08093FE0488E680931F051E
:10284000109228051092270560E083E196E00E942F
:10285000E7132D811AE0822F612F0E94642E682FCA
:10286000660F680F660F620F83E196E00E94E71320
:102870002C81822F612F0E94642E682F660F680FB3
:10288000660F620F83E196E00E94E7132B81822F8F
:10289000612F0E94642E682F660F680F660F620F0B
:1028A00083E196E00E94E71360E083E196E00E94F6
:1028B000E7132A81822F612F0E94642E682F660FF2
:1028C000680F660F620F83E196E00E94E71329818B
:1028D000822F612F0E94642E682F660F680F660F8B
:1028E000620F83E196E00E94E7132881822F612F17
:1028F0000E94642E682F660F680F660F620F83E1D7
:1029000096E00E94E71381E0DF91CF911F910C9434
:10291000C601FC01DB018C91808311968C9111978B
:10292000818312968C911297828313968C911397C0
:10293000838314968C911497848315968C91858348
:1029400008954115510529F4EAE7F0E080818F7779
:1029500080836A307105B9F0CB01880F991F880F09
:10296000991F807267706860682B88E10FB6F894D1
:10297000A895809360000FBE60936000E0E6F0E0F1
:10298000808180648083232BD9F483B7817F846026
:1029900083BFF89483B7816083BF85B7806685BFA6
:1029A0008F7D85BF7894889583B78E7F83BF789419
:1029B000452B29F4EAE7F0E0808180688083089560
:1029C00083B7817F846083BFF89483B7816083BFBE
:1029D0007894889583B78E7F83BF7894E9CF909160
:1029E00026059111FCCF282F91E090932605909316
:1029F00025053FEF3093FD041092FC04380F30930F
:102A0000FB049093DA049091DA04906D9093DA04C9
:102A100090912405913019F5109224059091DA04D3
:102A20009093BB009091BC0093FDF8CF95EC9093F0
:102A3000BC00909126059130E1F39091FC04981729
:102A400010F42091FC04ABEDB4E0EAEBF4E080E09C
:102A5000821307C010922A0580932905089595EEE8
:102A6000E6CF9D9191938F5FF3CFCF92DF92FF924C
:102A70000F931F93CF93DF936C0181E08093FE044B
:102A800088E680931F05109228051092270560E0C4
:102A900083E196E00E94E71381E00E94C60187E08F
:102AA00090E00E94EF1483E196E00E946C138F7710
:102AB000282F30E094E0359527959A95E1F7922FED
:102AC000990F990FC22FC91BCC0FC80F83E196E055
:102AD0000E946C139C0144E0359527954A95E1F7D7
:102AE0002F703327922F990F990FD22FD91BDD0FFB
:102AF000D80F83E196E00E946C139C0154E0359559
:102B000027955A95E1F72F703327922F990F990F38
:102B1000122F191B110F180F83E196E00E946C13FE
:102B200083E196E00E946C139C0164E03595279543
:102B30006A95E1F72F703327922F990F990F022F83
:102B4000091B000F080F83E196E00E946C139C01A3
:102B500074E0359527957A95E1F72F703327922FFA
:102B6000990F990FF22EF91AFF0CF80E83E196E0F7
:102B70000E946C139C01E4E035952795EA95E1F7F6
:102B80002F703327922F990F990F291B220F820F35
:102B9000F6018083F18202831383D483C583C60147
:102BA000DF91CF911F910F91FF90DF90CF9008950B
:102BB000BF92CF92DF92EF92FF920F931F93CF932A
:102BC000DF93EC01B62EC72E8D85811105C0CE0195
:102BD0000E94520581110EC01B861D861C8680E056
:102BE000DF91CF911F910F91FF90EF90DF90CF90E9
:102BF000BF90089540E060EFCE010E94FF0401E025
:102C0000E12CD12C11E0CE010E94AC04F82ECE01B3
:102C10000E94AC0491E0F91218C0813099F511348A
:102C2000D8F2DB86D11002C081E08D878B818823AA
:102C300099F22396EB2DFC2DCF0108962991219333
:102C4000E817F907D9F781E0CBCFEE2DF0E0F812C5
:102C50000FC08B851817A0F4DE01AE0FBF1F1396AF
:102C60008C91802379F4F12C193008F41C87D12E33
:102C7000EC0FFD1F8381902F9095892383830AC0D9
:102C80008113F1CFFE01EE0DF11D8381802B838333
:102C9000FF24F3946F2DCE010E94D0041F5F000F1C
:102CA00011F4E39401E087E08E1508F0ACCFB7CFC4
:102CB000DF92EF92FF920F931F93CF93DF937C01EC
:102CC0008B01D42EDC011696ED91FC9113861586AE
:102CD0001486128611861086178216821582148237
:102CE0001382C0E0B801F701868197810E94D81550
:102CF000D82F882329F0DC1629F0CF5FDC1690F757
:102D0000D0E009C067E0C8010E949504D801179679
:102D10009C918913F2CF8D2FDF91CF911F910F914D
:102D2000FF90EF90DF900895CF92DF92EF92FF92A5
:102D30001F93CF93DF93EC0180E2689FF001112491
:102D4000E85FFD4F9385917161F0842F827449F0A3
:102D500080E0DF91CF911F91FF90EF90DF90CF90B7
:102D60000895142F6A8B8091000190910101A09128
:102D70000201B09103018E879F87A88BB98BC4880D
:102D8000D588F12CE12C7601DD24CC24CF8AD88E95
:102D9000E98EFA8E828D938DB0E0A0E0AC01BD018A
:102DA0004C295D296E297F294F8B588F698F7A8F27
:102DB00083858871B1F4848D958DA68DB78D8B8BAD
:102DC0009C8BAD8BBE8B81E08D831F701C831E821C
:102DD0001F82188619861A861B861C861D8681E02E
:102DE000B8CF803109F0B4CF9E012D5E3F4F8B8D5F
:102DF0009C8D0E94260C882309F4AACF84E0E4CF9E
:102E0000CF92DF92EF92FF920F931F93CF93DF93B6
:102E1000EB018C016B0188E0C80ED11C84E5E82E23
:102E200081E0F82E89911F928F93FF92EF921F936A
:102E30000F930E94EA300E5F1F4F0F900F900F907C
:102E40000F900F900F90CC15DD0561F780E190E0B9
:102E5000DF91CF911F910F91FF90EF90DF90CF9076
:102E60000895FC0185811F928F9384811F928F9317
:102E700083811F928F9382811F928F9381811F92F2
:102E80008F93808190E08053984F9F938F9389E533
:102E900091E09F938F938AE394E09F938F930E9496
:102EA000EA302DB73EB7205F3F4F0FB6F8943EBFD4
:102EB0000FBE2DBF0895FB012281233608F023E6C3
:102EC00030E04181433608F043E63F932F931F9251
:102ED0004F93208130E02053384F3F932F9327E7C3
:102EE00031E03F932F939F938F930E94EA302DB749
:102EF0003EB7265F3F4F0FB6F8943EBF0FBE2DBFC3
:102F00000895FB0101900020E9F73197AF01461BBE
:102F1000570BDC01ED91FC910280F381E02D0994C7
:102F20008F929F92AF92BF920F931F93CF93DF9395
:102F3000CDB7DEB7A1970FB6F894DEBF0FBECDBFF9
:102F400019A2423008F44AE08E010F5D1F4F842E13
:102F5000912CB12CA12CA50194010E94842EE62F66
:102F6000B901CA01EA3004F5E05DD801EE938D01A4
:102F7000232B242B252B79F790E080E0109729F064
:102F8000BD018BE295E00E948117A1960FB6F894DF
:102F9000DEBF0FBECDBFDF91CF911F910F91BF90CC
:102FA000AF909F908F900895E95CDFCFCF92DF9232
:102FB000EF92FF92CF93DF936C01990FEE08FF0819
:102FC000F7FE17C08DE20E945504EC0166277727B3
:102FD000CB016C197D098E099F094AE00E94901768
:102FE0008C0F9D1FDF91CF91FF90EF90DF90CF90DE
:102FF00008954AE0C701B601DF91CF91FF90EF90AD
:10300000DF90CF900C94901768E871E00C948117D2
:10301000CF92DF92EF92FF92CF93DF936C01990FE3
:10302000EE08FF08F7FE1DC08DE20E945504EC017A
:1030300066277727CB016C197D098E099F094AE025
:103040000E949017C80FD91F8BE295E00E940418C8
:103050008C0F9D1FDF91CF91FF90EF90DF90CF906D
:1030600008954AE0C701B6010E949017EC01ECCF29
:10307000CF93DF930E945A04EC018BE295E00E940B
:1030800004188C0F9D1FDF91CF91089580EC91E083
:103090000E9438188FEA91E00E94381880EA91E087
:1030A0000E94381880E991E00E94381884E891E085
:1030B0000E9438188CE791E00C9438180F931F93F6
:1030C000CF93DF938C01D0E0C0E06115710519F05A
:1030D0000E948117EC01C8010E9404188C0F9D1FEB
:1030E000DF91CF911F910F910895CF93DF93CDB7CB
:1030F000DEB78F8D98A10E94D61789E00E945504F3
:10310000BE016B5F7F4F8AE394E00E9400176AE381
:1031100074E08BE295E00E94811789E00E945504DB
:10312000BE01635F7F4F8BE295E00E945E18DF91E6
:10313000CF910895CF92DF92EF92FF920F931F935A
:10314000CF93DF93EB017B012AE1E20EF11C8B01AF
:103150006C01C61AD70AC601800F911F0E94572D15
:10316000F80181938F01EE15FF05A9F7CE01DF91DC
:10317000CF911F910F91FF90EF90DF90CF90089526
:10318000FC01808191810C945C2FCF93DF93EC0143
:10319000898D9A8D009741F00E947210898D9A8DC9
:1031A0000E945C2F1A8E198EDF91CF910895EF92B5
:1031B000FF920F931F93CF93DF93FC010081118146
:1031C000FB01C081D181F80181918F018823B9F081
:1031D000082E000C990B0E94A2307C018991082EC8
:1031E000000C990B0E94A230E816F90661F380E00A
:1031F000DF91CF911F910F91FF90EF90089581E0A3
:10320000F7CF0F931F93CF93DF93EC0188819981C0
:10321000009759F02A813B812617370730F081E06B
:10322000DF91CF911F910F9108958B016F5F7F4FB9
:103230000E94E52F009759F0998388831B830A83A6
:103240002C813D81232B59F7FC011082E8CF80E0CF
:10325000E7CFEF92FF920F931F93CF93DF93EC0191
:103260007B01FB0101900020E9F731978F01061BDC
:10327000170BB8010E94011928813981811113C0EF
:103280002115310519F0C9010E945C2F198218829D
:103290001D821C821B821A82DF91CF911F910F9198
:1032A000FF90EF9008951D830C83B701C901DF9152
:1032B000CF911F910F91FF90EF900C94D430EF922B
:1032C000FF920F931F93CF93DF9300D0CDB7DEB75C
:1032D0008C01FC01118210821382128215821482E9
:1032E0006AE871E00E9429190E94860397FD21C0B7
:1032F0008A309105F1F089831A82F801E480F58023
:10330000FFEFEF1AFF0AB701C8010E9401198823D5
:1033100059F3F8012081318184819581BE016F5F6D
:103320007F4F820F931F0E94D430F801F582E48210
:10333000DBCFC8010F900F90DF91CF911F910F91BC
:10334000FF90EF900895EF92FF920F931F93CF930A
:10335000DF93EC017B018A011B821A8288EE93E0E5
:10336000A0E0B0E08C839D83AE83BF8386E191E0D3
:10337000998388838DE190E00E94C02E9A8F898F77
:10338000009779F02DE1F701DC0101900D922A956B
:10339000E1F74CE050E0B801CE010C960E94DB3022
:1033A000188EDF91CF911F910F91FF90EF900895AC
:1033B000CF92DF92EF92FF920F931F93CF93DF9301
:1033C000CDB7DEB76A970FB6F894DEBF0FBECDBF9C
:1033D0007C01D12CC12C10E000E0BE016F5F7F4F5B
:1033E000C6010E949A1848E050E0B701CE0101964C
:1033F0000E94AA30892BA1F4B701C6010E949A1835
:10340000C8016A960FB6F894DEBF0FBECDBFDF913C
:10341000CF911F910F91FF90EF90DF90CF90089583
:103420000F5F1F4F8AE1C80ED11C00311105A9F6AC
:10343000B701C70108960E940017F701118E0FEF20
:103440001FEFDECF7F928F929F92AF92BF92CF926B
:10345000DF92EF92FF920F931F93CF93DF93CDB73D
:10346000DEB76A970FB6F894DEBF0FBECDBFBC01C2
:10347000CE0101960E948914CE0101960E94311757
:103480008C019AE0E92E94E0F92E2BE3722E6E0166
:1034900089E0C80ED11C5701912C812CF801E65C03
:1034A000FB4F708288E0F501DE01119601900D92CC
:1034B0008A95E1F7CE0101960E94D8190F5F1F4F40
:1034C000B601C801865C9B4F0E94D430F601019082
:1034D0000020E9F73197EC19FD090E0F1F1F88E056
:1034E000A80EB11C8A948928E9F480E1E80EF11C49
:1034F0008AE3E81684E0F80671F6C8016A960FB60A
:10350000F894DEBF0FBECDBFDF91CF911F910F9119
:10351000FF90EF90DF90CF90BF90AF909F908F90F3
:103520007F90089588248394912CB8CF2F923F9256
:103530004F925F926F927F928F929F92AF92BF92C3
:10354000CF92DF92EF92FF920F931F93CF93DF936F
:10355000CDB7DEB7E9970FB6F894DEBF0FBECDBF8B
:103560008BE5E82E86E0F82E0FE116E08AE094E085
:103570009DAB8CAB712C612CF801F782E682148232
:103580001582108289E0818381E082838383F70141
:103590001386158614861286118610861782168267
:1035A000158214821382BE016F5F7F4FF8018681FE
:1035B00097810E94D815882309F45BC067E0CE018B
:1035C00001960E94950498858913EDCFF8018081BA
:1035D000811123C0868197810E945205BE016F5FD1
:1035E0007F4FF801868197810E94330540E064EBAC
:1035F000F801868197810E94FF04F80186819781F6
:103600000E94AC04D82EF801868197810E94520551
:10361000D11003C081E0F8018083F801D180BE01A0
:103620006F5F7F4FC8010E94B1068D15A8F4F801A5
:103630008181F801818384818F5F848389818832CD
:1036400031F088F4803119F0823209F0ACCFF80102
:1036500085818F5F8583A7CFBE016F5F7F4FC801D4
:103660000E94B106E6CF8B3391F3823409F09BCFF1
:10367000EECF87E791E00E945A04C3010E94081828
:10368000C8010E948A058CA99DA98A50944099AFCF
:1036900088AFCCA8DDA81FAA1EAA4EA9BE01645DF2
:1036A0007F4FC8010E945816882309F4BCC188E0E6
:1036B000FE01BC96D60101900D928A95E1F782E752
:1036C00091E00E945A048EA99FA90E94D6178DE608
:1036D00091E00E945A0488AD99AD865F9B4F5C01D2
:1036E000BC018AE394E00E9400176AE374E08BE275
:1036F00095E00E94811786E691E00E945A0488E0D6
:10370000FE01BC96DE01119601900D928A95E1F7BB
:10371000CE0101960E94D819BE01675F7F4F8BE2F0
:1037200095E00E94811782E691E00E945A04B5015B
:10373000C8010E94B1068C3009F46AC0AE01455E32
:103740005F4FB501C8010E94F105882309F460C0EC
:10375000F5018081803109F45BC0FFE7FF8FF8013C
:10376000868197810E945205B501F8018681978173
:103770000E94330540E06EE4F801868197810E9443
:10378000FF0440E06D8DF801868197810E94FF045F
:1037900040E06E8DF801868197810E94FF04F5015B
:1037A0008081803139F040E06F8DF801868197810A
:1037B0000E94FF04F801868197810E945205B5019D
:1037C000F801868197810E943305F801408168E401
:1037D000868197810E94FF0464E170E080E090E0C0
:1037E0000E94F702F8018081882331F06AE070E0DE
:1037F00080E090E00E94F702F801868197810E94A4
:103800005205F80181818D3008F06FC08CE0818312
:10381000B501C8010E9451064B015C01AC019B013E
:103820000E945F2E6BE871E081111BC0140125011D
:10383000E89457F82FEF3FEF4FE75FE7C201B10180
:103840000E945F2E81117CC02FEF3FEF4FE75FE7B3
:10385000C201B1010E94332C18160CF071C06FE840
:1038600071E08BE295E00E9481178BE295E00E9467
:103870000418F8E0CF0ED11C88AD99AD089699AF29
:1038800088AFEEA9FFA9319759F5FFEF6F1A7F0AAC
:103890008EE0E80EF11C0C5E1F4FECA9FDA970969E
:1038A000FDABECABF3E06F16710409F065CEE99661
:1038B0000FB6F894DEBF0FBECDBFDF91CF911F9141
:1038C0000F91FF90EF90DF90CF90BF90AF909F90BF
:1038D0008F907F906F905F904F903F902F900895C2
:1038E000E1E0F0E0FFABEEABD8CE8CE08183912C31
:1038F000812CF80184818815190409F00CF488CF13
:10390000482DBE016C5D7F4FC8010E945816F8011A
:103910005180BE016C5D7F4FC8010E94B1068515C4
:1039200040F4F8018181F8018183FFEF8F1A9F0A2B
:10393000E0CFBE016C5D7F4FC8010E94B106F3CF9E
:103940002FEF3FEF4FE75FE4C501B4010E945A2E0D
:1039500018161CF463E971E084CF2FEF3FEF4FE7B7
:103960005FECC501B4010E94332C87FDF3CF20E04A
:1039700030E0A901C501B4010E94332C87FF07C0C4
:103980008DE20E945504B7FAB094B7F8B0942AE0DB
:1039900037ED43EA5BE3C501B4010E94BF2D1B0173
:1039A0002C010E942B2E4B015C010E94382C9B01A4
:1039B000AC01C201B1010E94BE2D1B012C014AE0E5
:1039C000C501B4010E9490178EE20E94550420E0C8
:1039D00030E040E251E4C201B1010E94992C1B0188
:1039E0002C010E942B2E4B01B12CA12C4AE0C501C9
:1039F000B4010E949017C501B4010E94382C9B01AC
:103A0000AC01C201B1010E94BE2D20E030E040E2D5
:103A100051E40E94992C0E942B2E90E080E04AE015
:103A20000E94901722CFF601108211821282138217
:103A300014821582168217821CCF3F924F925F929A
:103A40006F927F928F929F92AF92BF92CF92DF92AE
:103A5000EF92FF920F931F93CF93DF93CDB7DEB713
:103A60002B970FB6F894DEBF0FBECDBF7C01FE01D1
:103A70003196CE010C966F0130E23193E817F907C9
:103A8000E1F7DA0130E087E09D91B92E992309F43E
:103A90003CC09E32F1F48A30C9F480E02B960FB618
:103AA000F894DEBF0FBECDBFDF91CF911F910F9174
:103AB000FF90EF90DF90CF90BF90AF909F908F904E
:103AC0007F906F905F904F903F90089538E08AE02C
:103AD000DBCFEBECF1E04491442321F031969413D9
:103AE000FACFDBCF8317C8F24FED490F4E35A8F65A
:103AF0004FE9490F4A3118F440EEB42EB90EF601E1
:103B0000E30FF11DB0823F5FBFCF8981803229F280
:103B1000322E8B01DB015B968D919C915C97F701B6
:103B2000948F838F16961D921D921D921C92199749
:103B3000FB011286138614861586F801828593850B
:103B4000A485B58543895489658976898417950745
:103B5000A607B70708F04DC025E0B695A79597953D
:103B600087952A95D1F7F82FFF70AF2ED8011596BB
:103B70008C91823008F491CFC8010E94800F97FD8C
:103B80008CCFF80182859385A485B5854F96A11DBC
:103B9000B11D82879387A487B587F0E2AF9EB001FD
:103BA0001124685F7D4F6115710509F476CFDB0143
:103BB0008C91882341F0853E09F062C0BB2029F03A
:103BC000BB24B394BACFB1100EC0F701A28A809182
:103BD000000190910101A0910201B091030186873B
:103BE0009787A08BB18BDB018C918111E9CFBB242E
:103BF000B394832D8271823109F04FCFBB2009F439
:103C00004DC0F701668577858089918941E00E94E2
:103C10009009882309F441CFD70152968C91B0E2E4
:103C20008B9FC0011124885F9D4F009709F435CF09
:103C3000FC013A9626E1DF011D922A95E9F72BE077
:103C4000F601DC0101900D922A95E1F721E238E2BC
:103C5000FC01318B208B40E058E057874687338B3F
:103C6000228B318F208F578B468B81E00E94650914
:103C7000882309F412CF432DD70152966C910AC0C4
:103C80004BE050E0C6010E94AA30892B09F055CFC5
:103C9000432D6A2DC7010E94941600CFF80185813B
:103CA000823009F4FACEC8010E94790D882309F404
:103CB000F4CED8015B96ED91FC915C9716968D90B1
:103CC0009D90AD90BC901997B2E08B1A9108A10815
:103CD000B108858504C0880C991CAA1CBB1C8A9558
:103CE000D2F786859785A089B189880E991EAA1E6C
:103CF000BB1E848124013501480E511C611C711CBE
:103D000084149504A604B70409F1E1E04E1A5108A1
:103D10006108710881E00E946509882309F4BDCE1D
:103D2000E8E0F2E0119288E094E08E179F07D1F767
:103D300040920001509201016092020170920301D1
:103D40008091E30181608093E301DACFD8015B9633
:103D5000ED91FC91258580E092E0A0E0B0E004C008
:103D6000880F991FAA1FBB1F2A95D2F7F801438914
:103D7000548965897689840F951FA61FB71F838B89
:103D8000948BA58BB68BD70152961C9288E092E05B
:103D90004FCF2F923F924F925F926F927F928F926E
:103DA0009F92AF92BF92CF92DF92EF92FF920F93CA
:103DB0001F93CF93DF93CDB7DEB7C756D1090FB6A8
:103DC000F894DEBF0FBECDBF6C015B01A6964FAF6E
:103DD000A69719A218A28AE391E09F8F8E8F1BA24B
:103DE0001C821B829A8389831E824E018EE1880E7B
:103DF000911CC4010E94910C75018E010F5F1F4F31
:103E0000240118016FE270E0C7010E94C0300097E2
:103E100009F45DC0F70120812F3271F4FFEFEF1A32
:103E2000FF0A902F812F8201492E582E942D852D27
:103E30002801092F182FE6CF8E198D3008F08CE05D
:103E4000682E712CA301B701CE01885A9F4F0E94A2
:103E5000DB30E8E5F0E0EC0FFD1FE60DF71D10820A
:103E6000C8010E947210F8018581882301F11EAEFD
:103E70001DAE8AE391E09CAF8BAF21961FAE2197D8
:103E8000A896EEADFFADA897AE0EBF1EF5018081DE
:103E900081112AC0BE01655C7F4FC1010E94E2060C
:103EA00047E951E0B101C6010E94A3193BC021E0DE
:103EB000AE01485A5F4FB201C8010E941D1D882300
:103EC000B1F2E60CF71CC2010E947210AFCFC7011D
:103ED0008A199B09A8969FAF8EAFA897B201CE0111
:103EE000CB960E94E206CCCF19A218A28AE391E0F9
:103EF0009F8F8E8F1BA221968FAD219781112DC090
:103F0000F6011382128288EE93E0A0E0B0E0848391
:103F10009583A683B78386E191E091838083128E97
:103F2000118E1486C601C959DF4F0FB6F894DEBF53
:103F30000FBECDBFDF91CF911F910F91FF90EF90FA
:103F4000DF90CF90BF90AF909F908F907F906F90B9
:103F50005F904F903F902F900895A6962FADA69713
:103F6000A501BE01655C7F4FC4010E941D1D882311
:103F700039F2CE01CB960E947210A6968FADA6970D
:103F80008670863039F449A95AA96BA97CA9C40165
:103F90000E94E50CB401C1010E94E206A50182CF96
:103FA0002F923F924F925F926F927F928F929F9249
:103FB000AF92BF92CF92DF92EF92FF920F931F9337
:103FC000CF93DF93CDB7DEB7CD59D1090FB6F894B3
:103FD000DEBF0FBECDBF6C0141E067E971E0CE01ED
:103FE0008A589F4F0E94C91ECE018A589F4F0E9437
:103FF0003207882309F413C110E000E088EE482E50
:1040000083E0582E612C712C96E1A92E91E0B92EF7
:104010002AE3222E21E0322E3BE5832E912C8C0EBA
:104020009D1E8CE0880E911CC157DF4FE880F980FF
:10403000CF58D040D70115968C911597823008F44F
:10404000AFC01A968D919D910D90BC91A02D8F714E
:104050009927AA27BB27892B8A2B8B2B09F0A0C075
:1040600040E250E0BE016F5F7F4FC7010E94790EB2
:10407000803209F095C08981882309F491C0853E7A
:1040800079F38E3269F38C8583FDEACF22961FAED9
:104090001EAE22973FAE2EAE24961FAE2497BE01D1
:1040A0006F5F7F4FE0E080E04EE2DB019D91BD015C
:1040B0009032A1F0883049F421E930E02C0F3D1F07
:1040C0002E0F311DD9014C93EF5F21E930E02C0F09
:1040D0003D1F2E0F311DD9019C93EF5F8F5F8B30F9
:1040E00021F781E990E08C0F9D1F8E0F911DFC013F
:1040F0001082C157DF4F68817981CF58D04021E0CD
:10410000AE014F565F4FCE01CE960E941D1D8823F3
:1041100009F446C0BE01625C7F4FCE0181960E94C9
:10412000E206AE014F565F4FBE016F5D7F4FCE017D
:10413000855A9F4F0E94A319CE01855A9F4F0E9416
:104140003207882309F466C0D7FE40C0C8010E9428
:10415000D61789E00E945504B4018BE295E00E94D5
:10416000811789E00E945504E696EEADFFADE69713
:1041700060E070E0CB01309721F063897489858914
:1041800096894AE00E9490178BE295E00E940418FD
:10419000CE01855A9F4F0E94C5180F5F1F4F44CF15
:1041A0006F961FAE1EAE6F97A3964CAE5DAE6EAE11
:1041B0007FAEA3976D96BFAEAEAE6D97E6961FAE7F
:1041C0001EAEE697A8961FAEA897B6CF0C151D0594
:1041D000F9F66BE570E06C0F7D1F645F7F4F8BE23B
:1041E00095E00E945E18CE01855A9F4F0E943E07BF
:1041F000892B59F0CE01855A9F4F0E94970F682F47
:104200008BE295E00E940804EECFCE01855A9F4FC5
:104210000E94C518CE018A589F4F0E94C518C356E8
:10422000DF4F0FB6F894DEBF0FBECDBFDF91CF9149
:104230001F910F91FF90EF90DF90CF90BF90AF90C4
:104240009F908F907F906F905F904F903F902F90B6
:1042500008950F931F93CF93DF9300D000D000D029
:10426000CDB7DEB78C018BE295E00E94C603892BA7
:10427000D1F3CE0101960E945F198D819E81892B19
:1042800011F189819A810097D1F00E94B929F80132
:1042900071836083CB010E94081801E010E0CE0119
:1042A00001960E94C018C80126960FB6F894DEBF8A
:1042B0000FBECDBFDF91CF911F910F91089560E0A8
:1042C00070E0CB01E4CFF801808191810E94081851
:1042D00010E000E0E4CF1F920F920FB60F9211246E
:1042E0002F933F938F939F93AF93BF938091FF0141
:1042F00090910002A0910102B09102023091FE0162
:1043000023E0230F2D3758F50196A11DB11D2093F1
:10431000FE018093FF0190930002A0930102B093ED
:1043200002028091030290910402A0910502B091D3
:1043300006020196A11DB11D809303029093040211
:10434000A0930502B0930602BF91AF919F918F9108
:104350003F912F910F900FBE0F901F90189526E858
:10436000230F0296A11DB11DD2CF1F920F920FB63F
:104370000F9211242F933F934F935F936F937F93EB
:104380008F939F93AF93BF93EF93FF938BE295E04F
:104390000E94E603FF91EF91BF91AF919F918F91A2
:1043A0007F916F915F914F913F912F910F900FBE31
:1043B0000F901F9018951F920F920FB60F92112415
:1043C0002F938F939F93EF93FF93E0913B05F09191
:1043D0003C058081E0914105F091420582FD1BC0C2
:1043E0009081809144058F5F8F73209145058217DE
:1043F00041F0E0914405F0E0E55DFA4F958F809340
:104400004405FF91EF919F918F912F910F900FBED7
:104410000F901F9018958081F4CF1F920F920FB6C6
:104420000F9211242F933F934F935F936F937F933A
:104430008F939F93AF93BF93EF93FF938091B900B6
:10444000887F803609F44AC0F0F5883209F4A7C0A5
:1044500018F5803109F49BC0B8F4882309F4F9C039
:10446000883009F494C0FF91EF91BF91AF919F9173
:104470008F917F916F915F914F913F912F910F900D
:104480000FBE0F901F901895883109F488C08032B4
:1044900051F78093FD0414C0803409F49DC040F4AA
:1044A0008033B9F38833F9F68093FD0485ECB0C00E
:1044B000803509F485C0883509F496C0883499F6AA
:1044C0000E948913D0CF883909F48CC038F5883719
:1044D00029F050F4883611F0803729F683E0809374
:1044E00026051092E00157C0883809F47BC0803956
:1044F00019F0803809F0B7CF8091E001803208F0E0
:1045000071C0E091E00181E08E0F8093E001809125
:10451000BB00F0E0E054FE4F80833DC0803B39F0AB
:10452000E0F4803A09F479C0883A09F09CCF84E03D
:10453000809326051092BF011092BE01E0912205E2
:10454000F091230509958091BE0181110FC081E092
:104550008093BE0110929E0109C0803C09F4A6CF51
:10456000883C09F4A3CF883B09F07DCFE091BF01DF
:1045700081E08E0F8093BF01F0E0E256FE4F808114
:104580008093BB009091BF018091BE0129C08091B2
:10459000DA048093BB0085EC8093BC0064CF9091DB
:1045A000FC048091FB04981758F5E091FC0481E02D
:1045B0008E0F8093FC04F0E0E552FB4F8081E9CF41
:1045C000E091FC0481E08E0F8093FC048091BB009D
:1045D000F0E0E552FB4F80839091FC048091FB0456
:1045E0009817C8F285E8D8CFE091FC0481E08E0FDF
:1045F0008093FC048091BB00F0E0E552FB4F808388
:104600008091250581115CCF81E08093240584EAA7
:104610008093BC001092260526CF85EC8093BC00C9
:10462000109226058091E001803230F4E091E001A3
:10463000F0E0E054FE4F10826091E00170E0E09104
:104640002005F091210580EC91E009951092E001A0
:104650000ACF1092FD0434CF1F920F920FB60F9223
:1046600011248F930FB6F894A8958091600088610B
:1046700080936000109260000FBE8F910F900FBE6C
:104680000F901F9018951F93CF93DF93EC01162F77
:1046900060E0812F0E94A102612F70E0FB01E65FC4
:1046A000FC4FE491E883FB01E25EFC4FE491F0E013
:1046B000EE0FFF1FE552FE4F859194919A838983F7
:1046C0001B861D861C861A86198618861F821E82E6
:1046D0001D821C821B82DF91CF911F910895EBE216
:1046E000F5E01382128288EE93E0A0E0B0E08483CC
:1046F0009583A683B78328E231E03183208325ECBC
:1047000030E03587248724EC30E03787268720EC9B
:1047100030E0318B208B21EC30E0338B228B22EC8C
:1047200030E0358B248B26EC30E0378B268B118ED6
:10473000128E138E148EE8ECF5E015821682118627
:10474000138642E050E060E070E04487558766875A
:10475000778713A215A614A62AE331E033A722A770
:1047600017A6E1E1F6E020E520831182E3E1F6E01F
:104770001382128284839583A683B78386E491E0B3
:104780009183808362E08BE596E00E94432363E09F
:1047900089E696E00E94432365E087E796E00E9461
:1047A0004323EFE1F6E0138A128A17A216A213AE92
:1047B00012AE0895CF93DF93CDB7DEB7CB54D109B6
:1047C0000FB6F894DEBF0FBECDBF789484B582607B
:1047D00084BD84B5816084BD85B5826085BD85B5A5
:1047E000816085BD80916E00816080936E00109223
:1047F000810080918100826080938100809181009E
:10480000816080938100809180008160809380002E
:104810008091B10084608093B1008091B00081608C
:104820008093B00080917A00846080937A008091B8
:104830007A00826080937A0080917A008160809310
:104840007A0080917A00806880937A001092C1008B
:10485000E0913B05F0913C0582E08083E0913705D3
:10486000F09138051082E0913905F0913A058FEC0E
:10487000808310924305E0913F05F091400586E06A
:104880008083E0913D05F0913E05808180618083C9
:10489000E0913D05F0913E05808188608083E09144
:1048A0003D05F0913E05808180688083E0913D0563
:1048B000F0913E0580818F7D80838EE192E00E94A1
:1048C00038180E9446180E946F020E946F0211E081
:1048D0001093FE0488E680931F051092280510921D
:1048E000270560E083E196E00E94E71381E00E94E3
:1048F000C60181E090E00E94EF1483E196E00E94FF
:104900006C1387FFFCC186E192E00E94381884E1B5
:1049100089831A831B831C821D821E82CE0101960D
:104920000E9416148EE092E00E9438180E947F10B8
:10493000811107C085E092E00E94381881E08093E1
:10494000FC010E94961ACE014C960E943515BE01BC
:10495000645E7F4FCE0101960E948914BE016F5F95
:104960007F4F8BEE91E00E945B176BEE71E08BE264
:1049700095E00E945E18BE01645E7F4FCE010196F5
:104980000E948914CE0101960E94221A6AE374E003
:104990008BE295E00E945E1847E16BEE71E0CE017C
:1049A00001960E94C91ECE0101960E9432078823FB
:1049B00009F4B4C16AE374E0CE0101960E945E1866
:1049C000CE0101960E94C5181092FC018091FD0154
:1049D000882339F08EE30E9455048BE295E00E9413
:1049E00004188091FC01882361F08AED92E00E9416
:1049F00038180E947F10811104C081ED92E00E945E
:104A00003818CE01CE960E94351523962FAD2397E8
:104A100030E0C9016AE070E00E94702E892B09F035
:104A200081C180910401909105012817390709F48B
:104A300079C1309305012093040181E08093FB014B
:104A40008FE196E00E948A0583E396E00E948A0542
:104A500087E496E00E948A05BE01625C7F4FCE012A
:104A600001960E948914BE016F5F7F4FCE014C9664
:104A70000E945B176BEE71E0CE014C960E94CB302A
:104A8000892B09F446C0BE01645E7F4F8BEE91E036
:104A90000E94D4300E94961ABE01625C7F4FCE0104
:104AA00001960E948914CE0101960E94221A8091DB
:104AB000FD01882381F08091FB01882331F06BEEAA
:104AC00071E08BE295E00E945E186AE374E08BE28D
:104AD00095E00E945E188091FB018823D1F047E1A8
:104AE0006BEE71E0CE0101960E94C91ECE010196C7
:104AF0000E943207882309F418C16AE374E0CE01EA
:104B000001960E945E18CE0101960E94C51810926F
:104B1000FC011092EA011092E901BE01625C7F4F34
:104B2000CE0101960E948914CE0101960E94311790
:104B30003C015FE1E52E56E0F52E6AE0A62E64E02A
:104B4000B62E6501912C812CB601C7010E94510639
:104B50001B012C0120E030E04EEF52EC0E94332C80
:104B6000811125C0B601C7010E9451061B012C010D
:104B700020E030E04EEF52EC0E94332C811117C040
:104B8000B601C7010E9451061B012C0120E030E054
:104B90004EEF52EC0E94332C811109C08091E90143
:104BA0009091EA0101969093EA018093E901F30163
:104BB000E65CFB4F2BE320833FEF631A730A83010C
:104BC000065C1B4F21E040E0C201B1010E949B291D
:104BD000FC0101900020E9F73197E81BF90B6E0EFC
:104BE0007F1E78E0C70ED11C8A94892809F0A1C0E5
:104BF00094E1E90EF11CE0E1AE0EB11C2BE536E0CC
:104C00002E153F0509F09DCF8091FD01882381F08D
:104C10008091FB01882331F06BEE71E08BE295E02F
:104C20000E945E186AE374E08BE295E00E945E18D1
:104C30008091FB018823D1F047E16BEE71E0CE015A
:104C400001960E94C91ECE0101960E943207882358
:104C500009F473C06AE374E0CE0101960E945E1805
:104C6000CE0101960E94C5181092FC018091FD01B1
:104C70008823B1F08091FC01882321F088EC92E038
:104C80000E9438180091E9011091EA0101151105FF
:104C900039F089EB92E00E945A04C8010E9408187A
:104CA00061E086E00E94A1028091FC01811149C06F
:104CB0000091E9011091EA010F5F1F4F85E090E03C
:104CC000B12CA12C6C01990FEE08FF08A016B106BB
:104CD000ECF561E086E00E942302C701B6010E9464
:104CE000F70260E086E00E9423026FEE71E080E050
:104CF00090E00E94F7023FEFA31AB30AE7CFCE017C
:104D000001960E943515CE0101960E9431176AE383
:104D100074E08BE295E00E945E1804CE81E08093FF
:104D2000FC0154CE1092FB018BCE81E08093FC01FC
:104D3000F0CE88248394912C07CF81E08093FC01EE
:104D400095CF89EF91E003E010E0BACF8BE295E0D8
:104D50000E94C603892B09F4C5C2CE0101960E94A8
:104D6000351586E0FE013196DE01DE9601900D924A
:104D70008A95E1F78BE295E00E947203F82E8BE2B0
:104D800095E00E94C6038C01892B29F08BE295E007
:104D90000E947203F4CF8F2D8F7D843509F09FC060
:104DA00080EB92E00E9438188EAD90E08053984FCF
:104DB0002C969FAF8EAF2C978FAD90E02A969FAF29
:104DC0008EAF2A9721968FAD219790E028969FAFBE
:104DD0008EAF289722968FAD229790E026969FAFB0
:104DE0008EAF269723968FAD239790E099AF88AF2B
:104DF00024968FAD249790E09BAB8AAB8AEA92E031
:104E00000E945A04CE01865B9F4F0E94292182EAAC
:104E100092E00E945A04CE01885B9F4F0E94292194
:104E20008CE992E00E945A04CE018A5B9F4F0E9457
:104E3000292185E992E00E945A04CE018C5B9F4FA4
:104E40000E9429218FE892E00E945A04CE01C89660
:104E50000E94292189E892E00E945A04CE01C2965C
:104E60000E9429218BE295E00E9404182AA938ADFE
:104E700025964FAD259727965FAD279729966FAD5D
:104E800029972C968EAD9FAD2C97803D77E09707A4
:104E900010F0805D97408CA76DA75EA74FA738AB39
:104EA00029ABCE018C960E941614CE0101960E9469
:104EB0003515CE0101960E9431176AE374E08BE24A
:104EC00095E00E945E188BE295E00E94C603892B54
:104ED00009F408C28BE295E00E947203F4CF843497
:104EE000E9F48091FD0191E089278093FD018823F9
:104EF00081F080E892E00E943818BE01625C7F4F2A
:104F0000CE0101960E948914CE0101960E94221AB8
:104F1000D4CF86E792E00E943818D5CF833539F494
:104F200087E692E00E9438180E94961ACCCF8C3403
:104F3000F1F48FE592E00E9438188FE492E00E942D
:104F400038188FEF9FEF0E94D01F1A82198288E4D1
:104F500092E00E943818CE0101960E942921892BE7
:104F600009F4B1CF89819A810E94D01FACCF8E34D1
:104F700061F5F12CE12CBE016F5F7F4FC7010E94EC
:104F80009A181F930F938DB79EB74A970FB6F89450
:104F90009EBF0FBE8DBFADB7BEB711968AE1FE01B1
:104FA000319601900D928A95E1F70E9475180F5F76
:104FB0001F4F9AE1E90EF11C0FB6F894DEBF0FBE49
:104FC000CDBF00311105B9F67ECF853409F087C118
:104FD00083E492E00E943818CE01885B9F4F0E94C4
:104FE00029212A968EAD9FAD2A973AE1F32EBE0174
:104FF0006F5F7F4F9C01F29EC001F39E900D1124C4
:105000000E949A182A968FAD2A978F9329968FAD72
:1050100029978F938DB79EB74A970FB6F8949EBF86
:105020000FBE8DBFADB7BEB71196FE013196019090
:105030000D92FA94E1F70E9475188DE392E00E94B8
:1050400038180FB6F894DEBF0FBECDBF8BE295E0E7
:105050000E94C603892BD1F3CE018C960E945F1962
:10506000E8A8F9A8E114F104B1F0F1E1EF16F104B8
:1050700018F021E1E22EF12C6CA57DA5A701CE014F
:1050800009960E94DB30E9E0F0E0EC0FFD1FEE0D29
:10509000FF1D10821A8EBE01675F7F4F8BE295E085
:1050A0000E945E18CE018C960E94C01888E392E0A0
:1050B0000E943818CE018A5B9F4F0E94292183E30A
:1050C00092E00E943818CE018C5B9F4F0E942921EC
:1050D0002896EEADFFAD2897EE0FFF1F26968EADFA
:1050E0009FAD2697E80FF91F93E0EE0FFF1F9A95EB
:1050F000E1F7E65FFB4F88E0DE01119601900D922B
:105100008A95E1F72A968FAD2A978F9329968FADCE
:1051100029978F932DB73EB72A5131090FB6F894CE
:105120003EBF0FBE2DBFADB7BEB711968AE1FE01DF
:10513000319601900D928A95E1F70E94751819AE8B
:1051400018AE1BAE1AAE1DAE1CAE64E070E0CE0110
:10515000C8960E9401190FB6F894DEBF0FBECDBFEE
:1051600028AD39AD81117EC02115310519F0C90175
:105170000E945C2F19AE18AE1DAE1CAE1BAE1AAE4F
:105180004CAD5DAD68AD79AD8BE295E00E94360324
:1051900087E292E00E945A048BE295E00E94C603E7
:1051A000892BD1F3CE01C2960E945F194EA95FA947
:1051B0006AA97BA98BE295E00E9436038BE295E019
:1051C0000E9404181DA61CA61FA61EA619AA18AA8E
:1051D00069E971E0CE018C960E9429198EA99FA9D8
:1051E00028A939A9F12C8217930761F4FF24F394BD
:1051F000892B41F0BE01645D7F4FCE01C2960E94B3
:10520000D718F82ECE018C960E94C018F11034C029
:105210001DA61CA61FA61EA619AA18AA6BE971E056
:10522000CE018C960E9429198EA99FA928A939A977
:105230008217930761F4FF24F394892B41F0BE0198
:10524000645D7F4FCE01C2960E94D718F82ECE0122
:105250008C960E94C018F11011C0CE01C2960E9417
:10526000C0188ECF84E090E09DAF8CAF6EE272E00C
:10527000C9010E94E02984CF01E010E0CE01C2966E
:105280000E94C018CE01C8960E94C018012B09F4D4
:105290001ACE2A968EAD9FAD2A972AE1289F40010B
:1052A000299F900C11248E010F5F1F4FF12CE12CD0
:1052B000F801B1908F016401CE0CDF1CC6010E9481
:1052C000572DB81621F06B2DC6010E945F2DFFEF00
:1052D000EF1AFF0A2AE1E216F10451F7F4CD0E9419
:1052E0004618F1CD8BE295E00E94750460E086E0FF
:1052F0000E94A1028091FC01882331F08FEF9FEF83
:10530000909305018093040130E020E050E040E0FC
:1053100067E070E088EE91E00E94A11480E090E0E8
:10532000892B09F453CB0E94D203882309F44ECB76
:105330000E9400004BCBEF920F931F93CF93DF930C
:10534000E80134E047FD34E1042E000C550B57FF13
:1053500003C0519541955109E32E022F242FAE0130
:105360000E94FC29CE01DF91CF911F910F91EF9008
:1053700008951F93FC0199278827BC01E894119197
:105380001032E9F3193010F01E30C8F31B3251F01F
:105390001D3249F4689406C00E94E729610F711D0F
:1053A000811D911D119110531A30B0F33EF4909568
:1053B0008095709561957F4F8F4F9F4F1F910895F6
:1053C000FB01DC0105900D920020E1F70895592FB3
:1053D000482F372F262F660F771F881F991F660FBC
:1053E000771F881F991F620F731F841F951F660FF9
:1053F000771F881F991F0895A9E0B0E0E2E0FAE264
:105400000C947E2D6A01F22EB02E102FFBE3AF2EEE
:10541000A01608F41BE31F5F012F27E0AE014F5FCA
:105420005F4F0E945B2BBC018981982F997091304E
:1054300009F43FC09BE2E1FC04C09E2D9170E0FCAA
:105440003AC05E2D5071E82FE87083FF46C084E0BB
:10545000911101C083E0EF2DE81B8F1508F0E0E00B
:10546000D6018E2F20E2552351F1992329F0D60140
:105470009C93C60101966C0196012D5F3F4FE2FEA1
:1054800024C08EE4D6018C9391E411969C931197DD
:1054900012968C93D9018E2F90E281111BC0E20FDE
:1054A000F32FF11D10828EEF9FEF2996ECE00C9404
:1054B0009A2D9DE2C6CF90E2C4CF2D9381508111E9
:1054C000FCCFCE0ED11CE0E0D0CF8EE6D6018C937F
:1054D00091E6DBCF9D938150E0CF482F447082FF4F
:1054E0003DC084E0911101C083E08F1510F4EF2DD1
:1054F000E81BD6018E2F20E2552309F1992329F0CC
:10550000D6019C93C60101966C0196012D5F3F4F19
:10551000E2FE1BC089E4D6018C938EE411968C9335
:10552000119786E412968C93D9018E2F90E28823EE
:1055300009F4B5CF9D938150FACF2D9381508111FD
:10554000FCCFCE0ED11CE0E0D9CF89E6D6018C93FA
:105550008EE611968C93119786E6E4CF9B0177FF38
:1055600002C030E020E0A1E0B0E0911102C0B0E064
:10557000A0E0F9013196AE0FBF1F8B2C912CBB2000
:1055800009F461C05401EFEFAE1ABE0AAA0DBB1DAB
:10559000FA161B0619F014F04F2D4A1B511188C042
:1055A000E3FC59C07601A42FB0E2A1114FC0C40E94
:1055B000D11C992309F45BC040E0D6011196F60195
:1055C00090836D01552309F448C0012F060F9A817D
:1055D000582F507184FF03C0913309F40150101605
:1055E0000CF047C0093008F008E0EEE2FE2E5B0147
:1055F000A01AB10885019194819491082F3F320738
:1056000029F4D601FC92F60131966F0162177307F7
:1056100094F1021713077CF5DB01A21BB30BAA243C
:10562000A394B12CAC0EBD1EAA0DBB1D11968C917E
:1056300021503109D601119628153905F4F0F601EB
:1056400080836D01DBCFB12CA12CA0CFF701B193EA
:105650007F01A150AACF9111B0CFD601942F50E372
:1056600002C05D9391509111FCCFC40ED11C40E05B
:10567000ACCF01E0BACF80E3DBCF6217730731F420
:10568000963388F4953311F4552369F0F60180833D
:10569000FD01842F90E2811108C0A40FB11D1C925E
:1056A00090E080E002CF81E3F1CF91938150F3CF7E
:1056B000911183CF8ACF283008F027E03327DA0111
:1056C000990F311D87FD916000966105710539F4D0
:1056D00032602E5F3D9330E32A95E1F708959F3FB6
:1056E00030F080387105610509F03C5F3C5F3D9307
:1056F000913008F08068911DDF93CF931F930F9333
:10570000FF92EF92192F987F9695E92F969596958F
:10571000E90FFF27EE53FF4F99273327EE24FF248D
:10572000A701E70105900894079428F4360FE71EB7
:10573000F81E491F511D660F771F881F991F069479
:10574000A1F70590079428F4E70EF81E491F561F8D
:10575000C11D770F881F991F661F0694A1F705903A
:10576000079428F4F80E491F561FC71FD11D880F34
:10577000991F661F771F0694A1F70590079420F4E0
:10578000490F561FC71FD81F990F661F771F881F05
:105790000694A9F784911095177041F0D695C79596
:1057A00057954795F794E7941A95C1F7E8E6F0E026
:1057B00068941590159135916591959105907FE2CA
:1057C0007395E118F10A430B560BC90BD009C0F7CA
:1057D000E10CF11E431F561FC91FD01D7EF470330C
:1057E00011F48A95E6CFE894015030F0080F0AF4DE
:1057F0000027021708F4202F2395022F7A3328F070
:1058000079E37D932A95E9F710C07D932A9589F66F
:10581000069497956795379517951794E118F10AAF
:10582000430B560BC90BD00998F023957E917395C5
:105830007A3308F070E37C932013B8F77E9170619F
:105840007D9330F0839571E37D9370E32A95E1F7C2
:105850001124EF90FF900F911F91CF91DF91992725
:1058600087FD909508950E94752C08F481E00895B5
:10587000E89409C097FB3EF49095809570956195EA
:105880007F4F8F4F9F4F9923A9F0F92F96E9BB27A0
:105890009395F695879577956795B795F111F8CF1C
:1058A000FAF4BB0F11F460FF1BC06F5F7F4F8F4F87
:1058B0009F4F16C0882311F096E911C0772321F07D
:1058C0009EE8872F762F05C0662371F096E8862F15
:1058D00070E060E02AF09A95660F771F881FDAF76C
:1058E000880F9695879597F90895990F0008550F99
:1058F000AA0BE0E8FEEF16161706E807F907C0F056
:1059000012161306E407F50798F0621B730B840B5D
:10591000950B39F40A2661F0232B242B252B21F437
:1059200008950A2609F4A140A6958FEF811D811DD7
:1059300008950E94AC2C0C941D2D0E940F2D38F060
:105940000E94162D20F0952311F00C94062D0C9436
:105950000C2D11240C94512D0E942E2D70F3959F27
:10596000C1F3950F50E0551F629FF001729FBB2756
:10597000F00DB11D639FAA27F00DB11DAA1F649FF2
:105980006627B00DA11D661F829F2227B00DA11DA5
:10599000621F739FB00DA11D621F839FA00D611D2B
:1059A000221F749F3327A00D611D231F849F600D4C
:1059B000211D822F762F6A2F11249F5750409AF075
:1059C000F1F088234AF0EE0FFF1FBB1F661F771F01
:1059D000881F91505040A9F79E3F510580F00C94CC
:1059E000062D0C94512D5F3FE4F3983ED4F3869539
:1059F00077956795B795F795E7959F5FC1F7FE2B6C
:105A0000880F911D9695879597F9089597F99F6747
:105A100080E870E060E008959FEF80EC0895002436
:105A20000A941616170618060906089500240A9403
:105A300012161306140605060895092E0394000C89
:105A400011F4882352F0BB0F40F4BF2B11F460FF18
:105A500004C06F5F7F4F8F4F9F4F089557FD905841
:105A6000440F551F59F05F3F71F04795880F97FB22
:105A7000991F61F09F3F79F08795089512161306DC
:105A80001406551FF2CF4695F1DF08C0161617060B
:105A90001806991FF1CF8695710561050894089540
:105AA000E894BB2766277727CB0197F90895F999E2
:105AB000FECF92BD81BDF89A992780B50895262F13
:105AC000F999FECF1FBA92BD81BD20BD0FB6F894E3
:105AD000FA9AF99A0FBE019608950E94AF2DA59FDC
